:100000000C9425010C944D010C944D010C944D0160
:100010000C944D010C944D010C944D010C944D0128
:100020000C944D010C944D010C94D0030C9442049B
:100030000C944D010C944D010C944D010C944D0108
:100040000C944D010C944D010C944D010C944D01F8
:100050000C944D010C944D010C944D010C947E0BAD
:100060000C944D010C944D010C944D010C944D01D8
:100070000C944D010C944D010C944D010C944D01C8
:100080000C944D010C944D010C944D010C944D01B8
:100090000C944D010C944D010C944D010C944D01A8
:1000A0000C944D010C944D010C944D010B080E085D
:1000B000FD07010807082F082F082F081208160847
:1000C0001A08200824082F082A0807634236B79B1D
:1000D000D8A71A39685618AEBAAB558C1D3CB7CCA8
:1000E0005763BD6DEDFD753EF6177231BF00000020
:1000F000803F08000000BE922449123EABAAAA2A03
:10010000BECDCCCC4C3E00000080BEABAAAAAA3E1D
:1001100000000000BF000000803F00000000000859
:100120004178D3BB4387D1133D190E3CC3BD4282F6
:10013000AD2B3E68EC8276BED98FE1A93E4C80EFB4
:10014000FFBE01C4FF7F3F0000000000080B00025B
:10015000020201000904000001020200000524005F
:1001600010010524010101042402060524060001F2
:100170000705810310004009040100020A00000085
:100180000705020240000007058302400000040347
:10019000090412010002EF020140412336800001F0
:1001A0000102030141726475696E6F204C4C43007B
:1001B00041726475696E6F204C656F6E6172646F19
:1001C0000000000000240027002A002D003000005D
:1001D000000000250028002B002E00310000000048
:1001E0000200090F0000030401000C0000000000E1
:1001F00000000000000000000000000004080201F0
:10020000104080401020408040800802040180405F
:100210002010020110801020404020000000002328
:1002200000260029002C002F000404040404030409
:100230000502020202040302020202060606060684
:100240000604040202020404170C11241FBECFEF9F
:10025000DAE0DEBFCDBF22E0A2EFB1E001C01D9227
:10026000A63AB207E1F711E0A0E0B1E0E2EEF0E378
:1002700002C005900D92A23FB107D9F711E0C5E287
:10028000D1E004C02197FE010E94B113C432D1070E
:10029000C9F70E94D20C0C946F180C940000409186
:1002A000F4015091F5012091F2013091F3014217D0
:1002B0005307B4F49091E8009570E1F39091E80051
:1002C00092FD19C08093F1008091F4019091F501A5
:1002D00001968F739927892B19F48EEF8093E8008C
:1002E0008091F4019091F50101969093F50180932E
:1002F000F40181E0089580E00895DF92EF92FF928B
:100300000F931F93CF93DF93D82EF92EE42E062F51
:1003100010E0C8010196880F0E944F0183E00E94FF
:100320004F01CD2DDF2D0C0F1D1FC017D10789F0F8
:10033000E7FE03C0FE01849101C088810E944F0145
:10034000F82E80E00E944F018F2121968111EDCF80
:1003500001C081E0DF91CF911F910F91FF90EF904D
:10036000DF900895DF92EF92FF920F931F93CF9348
:10037000DF93D82E8A017B01E40EF51EEB01CE152A
:10038000DF0571F0D7FE03C0FE01849101C08881B2
:100390000E944F0121968111F2CF8FEF9FEF01C094
:1003A000C801DF91CF911F910F91FF90EF90DF90E7
:1003B0000895615030F02091F100FC0120830196F6
:1003C000F8CF289884E6809300020895CF92DF92B8
:1003D000EF92FF920F931F93CF93DF936C017A01FB
:1003E0008B01C0E0D0E0CE15DF0581F0D8016D9122
:1003F0008D01D601ED91FC910190F081E02DC601B7
:100400000995892B11F02196EECF7E01C701DF916E
:10041000CF911F910F91FF90EF90DF90CF900895B3
:10042000CF93DF931F92CDB7DEB76983DC01ED91E7
:10043000FC910280F381E02D41E050E0BE016F5F4E
:100440007F4F09950F90DF91CF91089583E08093BE
:10045000E9008091F200882319F08AE38093E80094
:100460000895FC018485958597FD0BC09FB7F8948E
:1004700082E08093E9008091F2009FBF90E00196B6
:1004800008959FB7F89482E08093E9008091F2008C
:100490009FBF90E00895089580E090E00895FB01EB
:1004A000DC0111961C921E9213961C921E921297BA
:1004B00015961C921E9214978617970749F0608133
:1004C00071816115710521F0448155810C94F60B01
:1004D0000895FC0111821082138212821582148207
:1004E0006115710551F0FB0101900020E9F731978A
:1004F000AF01461B570B0C94F60B08950F931F93F7
:10050000CF93DF931F92CDB7DEB782E0898342E4B9
:1005100050E06CE471E080E80E94B2010E94E809BA
:10052000DC0112960D911C9113970115110589F0AC
:10053000D801ED91FC910280F381E02DBE016F5F47
:100540007F4FC801099597FD04C0F801008511850A
:10055000ECCF89810F90DF91CF911F910F9108957A
:100560008F929F92AF92BF92CF92DF92EF92FF92C3
:100570000F931F93CF93DF936C017B018A018091CE
:100580000B01882309F45CC080910102882309F4DF
:1005900057C08091900280FF05C08091E00082608A
:1005A0008093E000E801B12C8AEFA82E93E0892E19
:1005B0002AE3922E209711F4BB20D9F10E94D7098B
:1005C00081110AC0AA94AA20D9F161E070E080E00C
:1005D00090E00E94360BEECF282F30E0C217D307F1
:1005E0000CF48C2F9FB7F8948092E9002091E800DA
:1005F00025FF1DC0282F30E0C21BD30BF70181500F
:1006000020F041914093F100FACFE20EF31EBB209F
:1006100019F09092E8000AC08091E80085FD07C0BB
:100620009092E800BB24B394209709F0B12C9FBFAF
:10063000C1CF5D9884E68093F7011016110644F04F
:1006400081E090E0F6019383828380E090E001C036
:10065000C801DF91CF911F910F91FF90EF90DF9034
:10066000CF90BF90AF909F908F9008950E94D70930
:1006700090E008950F931F93CF93DF931F92CDB710
:10068000DEB78C01FC018485958597FF0EC0CE01F5
:1006900001960E94A909019719F4898190E002C08E
:1006A0008FEF9FEFF80195878487F8018485958502
:1006B0000F90DF91CF911F910F910895CF93DF930A
:1006C0001F92CDB7DEB7FC018485958597FD05C0E7
:1006D0002FEF3FEF358724870BC0CE0101960E9494
:1006E000A909019719F4898190E002C08FEF9FEF6B
:1006F0000F90DF91CF910895CF93DF93EC0160E0ED
:100700008E810E94250A61E08E810E94250A60E0A8
:100710008E810E94250A8BE891E00197F1F7DF9125
:10072000CF9108950F931F93CF93DF93EC018881AE
:100730009981009729F02A813B812617370788F491
:100740008B016F5F7F4F0E949417009761F0998330
:1007500088831B830A832C813D81232B11F4FC01A8
:10076000108281E001C080E0DF91CF911F910F9155
:100770000895CF93DF93EC0188819981009711F060
:100780000E940B17198218821D821C821B821A82FA
:10079000DF91CF910895FC01808191810C940B171A
:1007A0001F920F920FB60F9211248F939F938091F7
:1007B000E1009091E100937F9093E10083FF0FC0EF
:1007C0001092E90091E09093EB001092EC0092E31C
:1007D0009093ED001092010298E09093F00082FF58
:1007E00020C093E09093E9009091F200992319F0D2
:1007F0009AE39093E8009091F701992339F0909152
:10080000F70191509093F701992389F1909100029B
:10081000992339F09091000291509093000299230E
:1008200041F184FF10C08091E2008E7E8160809350
:10083000E2008091E1008F7E8093E1008091900240
:100840008E7E806111C080FF16C08091E2008E7E96
:1008500080618093E2008091E1008E7E8093E100D0
:10086000809190028E7E81608093900204C05D9A98
:10087000CDCF289AD6CF9F918F910F900FBE0F901A
:100880001F9018951F920F920FB60F921124CF92BE
:10089000DF92EF92FF920F931F932F933F934F930B
:1008A0005F936F937F938F939F93AF93BF93EF93D8
:1008B000FF93CF93DF93CDB7DEB76C97DEBFCDBF8D
:1008C0001092E9008091E80083FFFBC168E0CE014F
:1008D00045960E94D90182EF8093E8008D8987FFB9
:1008E00005C09091E80090FFFCCF03C09EEF90936D
:1008F000E800982F907609F0C6C09E894F89588DE0
:100900002F89F88C91110CC0803829F480919102C4
:100910008093F10002C01092F1001092F10045C1E5
:10092000913051F4811141C14130510509F03DC16F
:10093000809191028D7F0BC0933061F4811135C19C
:100940004130510509F031C180919102826080935C
:1009500091022BC1953049F48091E80080FFFCCFD3
:10096000822F80688093E30020C1963009F05EC03A
:100970000B8D1C8D22E01092E9001092F50110926F
:10098000F401F21232C01092F3011092F2010E94AF
:100990007E0299E0BE016F5F7F4FDB01E92F1D9260
:1009A000EA95E9F79983FA8291E09E8390EA988725
:1009B0009AEF99872091F4013091F501275F3F4F1D
:1009C0003C832B838D831092E9001092F5011092E5
:1009D000F4011093F3010093F20149E050E080E04C
:1009E0000E94B2010E947E02E0C01093F3010093C6
:1009F000F2010E94E809DC0112960D911C911397F7
:100A00000115110509F4BBC0D801ED91FC910480DA
:100A1000F581E02DBE016B5E7F4FC80109950097FF
:100A200009F0C7C0F80100851185EACF973009F4B5
:100A300045C1983021F481E08093F100B6C099302F
:100A400009F0B3C0837009F039C1E3E1F1E081E05E
:100A500031E096E32081211109C08EE78093EA00FE
:100A60001092EA008F89809301029FC08093E90071
:100A70003093EB0021912093EC009093ED008F5F79
:100A8000873041F7EACF8B8D9C8D1092E900109250
:100A9000F5011092F4019093F3018093F201898D96
:100AA000811153C08E899D89913A49F4813209F0B0
:100AB00005C147E050E064E071E080E0BBC09132E6
:100AC00009F0FCC0833269F48F89988DA0E0B0E012
:100AD0008093000190930101A0930201B093030160
:100AE00064C0803269F48091E80082FFFCCF67E047
:100AF00084E091E00E94D9018BEF8093E80055C01B
:100B0000823209F052C08F8980930B01EEEFFFE72C
:100B1000859194918B3F9C4D19F0E0E0F8E002C084
:100B2000EEEFFAE08091040190910501A091060199
:100B3000B0910701803B9440A105B10509F09EC02A
:100B400080910B0180FF79C099C00E94E809FC01E7
:100B5000028113810115110509F4B0C0D801ED918E
:100B6000FC910190F081E02DBE016B5E7F4FC801CA
:100B7000099581111AC0F80100851185EBCFF1E0CC
:100B8000FF1609F44EC0F3E0FF1298C08F89882346
:100B900009F44AC0823089F440E860E180EB91E0DA
:100BA0000E947D01882309F489C08EEF8093E800BC
:100BB00088C018161906CCF381C0813029F440E8AA
:100BC0006BE084EA91E0ECCF833009F077C00E94BB
:100BD000E809DC011296ED90FC9013978E010F5FEF
:100BE0001F4F6801E114F10479F0D701ED91FC91F8
:100BF0000680F781E02DB801C7010995080F111D86
:100C0000F701E084F184EECFD8011C92F601019047
:100C10000020E9F73197BF016C197D0940E0C6015A
:100C2000BFCF62E971E002C06EE871E0FB01449160
:100C300050E080E80E94B201B8CFEE3F2AE0F20710
:100C400051F0808191818737A7E79A0721F090932F
:100C5000FF0A8093FE0A87E797E79183808380915C
:100C600060008093F6019BE088E10FB6F894A895A8
:100C7000809360000FBE9093600097CF8081918138
:100C80008737974709F091CFA895809160008861D8
:100C9000809360008091F60180936000EE3FBAE09F
:100CA000FB0739F08091FE0A9091FF0A91838083BF
:100CB0007CCF1092FF0A1092FE0A77CF81E28093D8
:100CC000EB006C960FB6F894DEBF0FBECDBFDF9180
:100CD000CF91FF91EF91BF91AF919F918F917F91B4
:100CE0006F915F914F913F912F911F910F91FF90C5
:100CF000EF90DF90CF900F900FBE0F901F90189540
:100D0000DC01ED91FC910190F081E02D0994DB0173
:100D100014964D915C9115976D917C91DC01ED914C
:100D2000FC910280F381E02D09946115710579F041
:100D3000FB0101900020E9F73197AF01461B570BEB
:100D4000DC01ED91FC910280F381E02D099480E0BB
:100D500090E008950F931F93CF93DF93EC010E94CF
:100D600095068C0167E371E0CE010E949506800F25
:100D7000911FDF91CF911F910F9108950C949506CB
:100D8000CF92DF92EF92FF920F931F93CF93DF9357
:100D90006C017C0187E0E80EF11CC0E0D0E0062F7A
:100DA00010E0B8010C2E02C0759567950A94E2F721
:100DB0006170F70181917F010E94250A2196C4305C
:100DC000D10579F7C601DF91CF911F910F91FF9067
:100DD000EF90DF90CF900C947C03CF92DF92EF9254
:100DE000FF920F931F93CF93DF93EC01F62E642FA6
:100DF0008C810E94250A8D818F3F19F060E00E944E
:100E0000250A8F850F2D10E084FF25C06E0187E035
:100E1000C80ED11CE12CF12CB8010E2C02C0759526
:100E200067950A94E2F76170F60181916F010E9463
:100E3000250AFFEFEF1AFF0A88E0E816F10461F7D0
:100E4000CE01DF91CF911F910F91FF90EF90DF9036
:100E5000CF900C947C03B80184E0759567958A95D2
:100E6000E1F7CE010E94C0066F2DCE01DF91CF9138
:100E70001F910F91FF90EF90DF90CF900C94C006E0
:100E800041E00E94ED0681E090E00895DF92EF924C
:100E9000FF920F931F93CF93DF93CDB7DEB76E977B
:100EA0000FB6F894DEBF0FBECDBF8C017B0169E3A6
:100EB00071E00E946902F70162817381CE016A309C
:100EC00071050CF549960E945B086AE371E0CE015A
:100ED00043960E9469024D8D5E8D698D7A8DCE019B
:100EE00043960E94C80B811104C0CE0143960E9414
:100EF000B903BE016D5E7F4FCE0101960E944F0285
:100F0000DD24D39404C001960E945B08D12C4D814E
:100F10005E8169817A81C8010E94C80BCE01019669
:100F20000E94CB03DD2041F0CE0143960E94CB030B
:100F3000CE0149960E94CB0341E050E06AEE71E099
:100F4000C8010E94C80BF70164817581CE016A3027
:100F500071050CF507960E945B086AE371E0CE010B
:100F600001960E9469024B855C856F817885CE0170
:100F700001960E94C80B811104C0CE0101960E9407
:100F8000B903BE016F5F7F4FCE010D960E944F02E5
:100F9000FF24F39404C00D960E945B08F12C49894C
:100FA0005A896D857E85C8010E94C80BCE010D96B9
:100FB0000E94CB03FF2041F0CE0101960E94CB039B
:100FC000CE0107960E94CB03C8016E960FB6F89427
:100FD000DEBF0FBECDBFDF91CF911F910F91FF906C
:100FE000EF90DF90089590E0FC013197EF30F1052C
:100FF000B0F5EA5AFF4F0C94B113809180008F77BF
:1010000003C0809180008F7D80938000089580913F
:101010008000877FF9CF84B58F7702C084B58F7D3C
:1010200084BD0895809190008F7707C080919000D3
:101030008F7D03C080919000877F809390000895FA
:101040008091C0008F7703C08091C0008F7D809316
:10105000C00008958091C200877F8093C2000895E8
:101060003FB7F8948091FC019091FD01A091FE01A1
:10107000B091FF0126B5A89B05C02F3F19F001963E
:10108000A11DB11D3FBFBA2FA92F982F8827820F0E
:10109000911DA11DB11DBC01CD0142E0660F771F5E
:1010A000881F991F4A95D1F7089540E0682F81E67F
:1010B00092E00C94ED06EF92FF920F931F93CF9363
:1010C000DF93CDB7DEB762970FB6F894DEBF0FBEE1
:1010D000CDBF8C01CB01F8011182108213821282E4
:1010E000158214824AE09E012F5F3F4F7901B901BA
:1010F0000E94C611F70101900020E9F73197AF0176
:101100004E195F09B701C8010E94F60B62960FB62F
:10111000F894DEBF0FBECDBFDF91CF911F910F912D
:10112000FF90EF900895A9E7B2E0ED91FD918081E5
:10113000ED91FD919081ED91FD916C9163708E2305
:1011400009F064609F2309F06860E1EBF8E0E60FC6
:10115000F11D659565956D936D917D918D919D9135
:10116000099423C01AC012C016C010C01EC009C006
:1011700014C013C006C019C009C00DC007C00DC0FF
:1011800014C062507040804090400BC0615070406D
:101190008040904006C06E5F01C06F5F7F4F8F4FF1
:1011A0009F4F9E938E937E936E9308954F925F927E
:1011B0006F927F928F929F92AF92BF92CF92DF9267
:1011C000EF92FF920F931F93CF93DF93CDB7DEB7CC
:1011D000A1970FB6F894DEBF0FBECDBF8C016B0197
:1011E000770FEE08FF08F7FE2AC06DE20E94800626
:1011F0005C0122273327A9012C193D094E095F09FB
:1012000019A2CE0181967C019AE0492E512C612CC5
:10121000712CCA01B901A30192010E948F13605D74
:10122000F70162937F01211531054105510589F7C9
:10123000BF01C8010E9495068A0D9B1D1EC0A70113
:10124000960119A2CE0181967C018AE0882E912C0C
:10125000A12CB12CCA01B901A50194010E948F13E0
:10126000605DF70162937F0121153105410551054C
:1012700089F7BF01C8010E949506A1960FB6F894A0
:10128000DEBF0FBECDBFDF91CF911F910F91FF90B9
:10129000EF90DF90CF90BF90AF909F908F907F9016
:1012A0006F905F904F900895CF93DF93BC0182E0E1
:1012B00092E00E94D608EC0167E371E082E092E0E0
:1012C0000E9495068C0F9D1FDF91CF910895FC0120
:1012D0002281E081E43008F0E3E090917402E917A4
:1012E00010F0EFEFE90FF0E0EF59FD4F8489820F26
:1012F00080680C945508CF93DF93E0917402E2303C
:1013000010F4E15001C0E1E0F0E0EF59FD4F8489B5
:1013100080680E945508C0E1D0E060E871E081E695
:1013200092E00E94BE062197C1F7DF91CF91089508
:10133000E1E6F2E080898D7F808B88600C9455080F
:10134000E1E6F2E08089982F9260908B8A600C949D
:10135000550820910102211103C08FEF9FEF0895DE
:101360005FB7F89422E02093E9002091F20030E08A
:101370001216130614F421E030E0422FFC0184E63B
:10138000415038F02898809300029091F100919399
:10139000F7CF2115310521F08091F200882319F053
:1013A0005FBFC90108958BE68093E800F9CF2FB79E
:1013B000F89483E08093E9009091E800892F80728F
:1013C00095FF04C09091F20080E4891B2FBF08951F
:1013D0008091880281110DC082E08093840284E0B4
:1013E00080938502109287021092860281E080939A
:1013F000880284E892E00895CF93DF93282F30E0AD
:10140000F901E352FE4F8491F901E450FE4FD4916B
:10141000F901E75DFD4FC491CC2391F081110E9449
:10142000F307EC2FF0E0EE0FFF1FE55EFD4FA591F7
:10143000B491EC91ED2381E090E021F480E002C0D2
:1014400080E090E0DF91CF9108951F93CF93DF93D9
:10145000282F30E0F901E352FE4F8491F901E45066
:10146000FE4FD491F901E75DFD4FC491CC23C1F04B
:10147000162F81110E94F307EC2FF0E0EE0FFF1FF3
:10148000E153FE4FA591B4919FB7F894111104C098
:101490008C91D095D82302C0EC91DE2BDC939FBFBA
:1014A000DF91CF911F910895CF93DF9390E0FC01DE
:1014B000E450FE4F2491FC01E75DFD4F84918823A9
:1014C00061F190E0880F991FFC01EF53FE4FC59129
:1014D000D491FC01E153FE4FA591B491611109C073
:1014E0009FB7F8948881209582238883EC912E23DE
:1014F0000BC0623061F49FB7F8948881322F309529
:1015000083238883EC912E2B2C939FBF06C08FB72B
:10151000F894E8812E2B28838FBFDF91CF91089517
:10152000CF93DF93823028F090917002986090936F
:101530007002809374021092750280E480937602A8
:1015400080E18093770280E58093780261E080916A
:1015500065020E94540A809166028F3F19F061E093
:101560000E94540A61E0809167020E94540AC1E619
:10157000D2E09E01215632408091700284FD03C06A
:1015800084E090E002C088E090E0219628173907B7
:101590002CF461E08E810E94540AEBCF8BE39DE036
:1015A0000197F1F760E0809165020E94250A60E0F2
:1015B000809167020E94250A809166028F3F19F090
:1015C00060E00E94250A8091700284FD20C063E0E3
:1015D00081E692E00E94C006CBE4D6E4CE010197FA
:1015E000F1F763E081E692E00E94C0062197F1F7EF
:1015F00063E081E692E00E94C00683E592E00197F5
:10160000F1F762E081E692E00E94C00615C08062B8
:101610000E9455088BE496E40197F1F780917002DF
:1016200080620E94550883E592E00197F1F780916E
:10163000700280620E9455088091700280620E9450
:10164000550884E0809371028CE00E94550881E087
:101650000E9455088BE39FE10197F1F782E08093A8
:10166000720286E0DF91CF910C9455088F929F9281
:10167000AF92BF92CF92DF92EF92FF926B017C010B
:101680000E9430084B015C01C114D104E104F10453
:10169000F1F00E943008DC01CB0188199909AA09F0
:1016A000BB09883E9340A105B10570F321E0C21A41
:1016B000D108E108F10888EE880E83E0981EA11C8D
:1016C000B11CC114D104E104F10419F7DDCFFF907E
:1016D000EF90DF90CF90BF90AF909F908F90089544
:1016E0002FB7F8946091F8017091F9018091FA0197
:1016F0009091FB012FBF08950E945A181F920F92DC
:101700000FB60F9211242F933F938F939F93AF9314
:10171000BF938091F8019091F901A091FA01B091E5
:10172000FB013091A10223E0230F2D3720F4019615
:10173000A11DB11D05C026E8230F0296A11DB11DF4
:101740002093A1028093F8019093F901A093FA01EC
:10175000B093FB018091FC019091FD01A091FE01ED
:10176000B091FF010196A11DB11D8093FC019093E2
:10177000FD01A093FE01B093FF01BF91AF919F9136
:101780008F913F912F910F900FBE0F901F90189542
:10179000EF92FF920F931F93CF93DF936115710523
:1017A00011F480E01CC041155105C1F07B01EC0132
:1017B0008C819D818A01080F191FB801CE010E94FA
:1017C0009203882371F3288139818C819D81B7012F
:1017D000820F931F0E9468181D830C8381E0DF91A4
:1017E000CF911F910F91FF90EF900895EF92FF928C
:1017F0000F931F93CF93DF93EC017B018A01BA0112
:101800000E949203811104C0CE010E94B90307C057
:101810001D830C83B701888199810E946818CE01CD
:10182000DF91CF911F910F91FF90EF900895CF938B
:10183000DF93109205021092040288EE93E0A0E07C
:10184000B0E08093060290930702A0930802B09341
:1018500009028DE191E090930302809302028FEFE1
:101860009FEF90930F0280930E0262E08BE00E9444
:10187000540A62E083E00E94540AE4E3F2E0E49157
:10188000F0E0EE0FFF1FE55EFD4FA591B491B09320
:101890007A02A0937902E7E0F2E0849180937D02DE
:1018A000ECE2F2E0E491F0E0EE0FFF1FE55EFD4FA9
:1018B000C591D491D0937C02C0937B02EFEFF1E00D
:1018C000949190937E021092800210928102109265
:1018D000820210928302EBE3FFE13197F1F7EC9182
:1018E000E82381E009F480E0E881E92309F08260DF
:1018F00080937F0210926402109263028FE291E063
:10190000909362028093610288E0809365028FEF7A
:101910008093660289E08093670284E08093680286
:1019200085E08093690286E080936A0287E0809375
:101930006B0210926C0210926D0210926E02109265
:101940006F021092700281E00E94900A8DE090E098
:1019500090935F0280935E021092600261E00E94A9
:10196000540A6091600280915E020E94250A1092E2
:1019700059021092580210925B0210925A02109271
:101980005D0210925C021092530210925202109269
:101990005502109254021092570210925602DF9193
:1019A000CF910895CF93DF93CDB7DEB76D970FB684
:1019B000F894DEBF0FBECDBF789484B5826084BD3D
:1019C00084B5816084BD85B5826085BD85B5816043
:1019D00085BD80916E00816080936E0010928100C1
:1019E000809181008260809381008091810081607C
:1019F000809381008091800081608093800080913D
:101A00009100826080939100809191008160809329
:101A10009100809190008160809390008091C1003E
:101A200084608093C1008091C10082608093C10076
:101A30008091C10081608093C1008091C30081606A
:101A40008093C3008091C00082608093C000809129
:101A5000C20081608093C20080917A00846080938C
:101A60007A0080917A00826080937A0080917A0077
:101A7000816080937A0080917A00806880937A00F8
:101A80001092010210929102109290028091D70060
:101A900081608093D70080EA8093D80089B5806107
:101AA00089BD89B5826089BD09B400FEFDCF61E0C2
:101AB00070E080E090E00E94360B8091D8008F7C2F
:101AC00080618093D8008091E000807F8093E00067
:101AD0008091E1008E7E8093E1008DE08093E200B2
:101AE000559A209A62E082E00E94540A82E00E94A5
:101AF000900A82E992E00E9467096CE371E081E656
:101B000092E00E94AA0666246394712C7A8269820C
:101B1000CE0101960E947B0970929302609292021C
:101B200010929502109294028091920290919302E9
:101B3000A0919402B0919502898B9A8BAB8BBC8B50
:101B400052E0E52EF12CC12CD12C0E9493088090FC
:101B5000800290908102CE0141960E9467090E9406
:101B6000A00900E010E00E949308A0908002B090CD
:101B70008102C501881999098430910549F4093019
:101B8000110519F00F5F1F4F0DC000E010E00AC0F3
:101B9000049671F40115110519F00150110902C0E4
:101BA00009E010E0C8010E9454099924939402C0EE
:101BB0005401912C82E00E94FC09892B31F482E0CF
:101BC0000E94FC09892BD9F304C0992089F0912C3B
:101BD00004C0992079F099249394B80181E692E0A9
:101BE0000E94D608CE0141960E946709911002C05A
:101BF0004501B9CF0E9498091801110F44085508F2
:101C0000B7010F2C000C880B990B0E94FD119B0152
:101C1000AC0160E070E080E291E40E947C144B0132
:101C20005C0120E030E0A9010E94771420E030E060
:101C300040E05FE387FD05C0C501B4010E94D513F4
:101C400004C0C501B4010E94D4130E944114A20132
:101C500091010E946B13C60ED71E8B899C89019639
:101C60009C8B8B8B31E0E31AF10808F06ECF82E990
:101C700092E053ECC51651E0D50679F00E94670951
:101C80006DE471E081E692E00E94BE0668EE73E0CA
:101C900080E090E00E94360B39CF0E94670960E631
:101CA00071E081E692E00E94BE0668EE73E080E09B
:101CB00090E00E94360B10929502109294021092BE
:101CC00093021092920282E992E00E9467090E94B8
:101CD000700B4B015C019B01A50160E070E080E0AE
:101CE00090E0A0909902B0909A02C0909B02D09090
:101CF0009C02E0909D02F0909E0200919F02109144
:101D0000A0020E94B713283E3340410551056105EA
:101D1000710581059105C1F0B8F081E080939802CA
:101D20000E94700B8B019C016093990210939A02A0
:101D300020939B0230939C0210929D0210929E026F
:101D400010929F021092A0020091960210919702A9
:101D50000130110509F492C108F4E2C00230110506
:101D600009F4ADC1B2C282010E9493084090800282
:101D700050908102C201801B910B049709F04BC166
:101D8000222009F438C1311043C12BE3821691049B
:101D90000CF0A3C23FEF831A930AC4010E945409B6
:101DA000820141E04D8FC201801B910B049609F026
:101DB00040C1222009F435C131103DC11814190465
:101DC0000CF0E0C211E0811A9108C4010E9454098C
:101DD00021E02D8F82E00E94FC09892B09F09FC22F
:101DE0000E94700B7B018C0120E030E0A9016D8B1B
:101DF000FE8A0F8B188F298F3A8F4B8F5C8F82E072
:101E00000E94FC09892B09F419C10E94700B5B0127
:101E10006C019B01A60160E070E080E090E0AD887D
:101E2000BE88CF88D88CE12CF12C00E010E00E9415
:101E3000B7132F3C374041055105610571058105F8
:101E4000910511F008F069C2211056C28B819C8166
:101E500003969C838B8362E871E082E092E00E94AB
:101E6000AA06312C2224239410E0CE0101960E9470
:101E700067092D8D211158C2112309F474CF0E94D6
:101E800098091092590210925802C3016CE370E055
:101E90000E947B1390935B0280935A02C4016CE30F
:101EA00070E00E947B1390935D0280935C0268E572
:101EB00072E0CE0101960E944607BE016F5F7F4F20
:101EC00082E092E00E948706CE0101960E94CB0339
:101ED00086E0E8E5F2E0A2E5B2E001900D928A9595
:101EE000E1F782E992E00E9467096AE971E081E620
:101EF00092E00E94BE0668EE73E080E090E00E94EF
:101F0000360B81E090E09A838983CE0101960E948E
:101F10007B09EE24E394F12CF0929702E092960272
:101F20008091960290919702892B09F0CEC1109270
:101F3000930210929202109295021092940282E9FA
:101F400092E00E94670961E771E081E692E00E94F9
:101F5000AA06EE24E394F12CF0929302E09292020E
:101F6000FA82E982CE0101960E947B0982E992E021
:101F70000E94670962E572E0CE0101960E94460761
:101F8000BE016F5F7F4F81E692E00E948706CE011F
:101F900001960E94CB0310929502109294028091B8
:101FA000920290919302A0919402B09195028D8734
:101FB0009E87AF87B88B0E94930800918002109192
:101FC0008102CE010D960E9467098D859E85AF85A1
:101FD000B88989839A83AB83BC830E94A0096090EF
:101FE000540270905502809056029090570233240C
:101FF0003394212CB9CE0BE36016710424F41FEF47
:10200000611A710A02C0612C712CC3010E9454092B
:10201000311003C0C2CE1D8EC6CE820151E05D8F4D
:10202000C2CE161417040CF05BC101E0601A7108EF
:102030005AC12801CFCE31E03D8FCCCE0E94700B2B
:102040005B016C019B01A60160E070E080E090E024
:10205000AD88BE88CF88D88CE98CFA8C0B8D1C8D0E
:102060000E94B7132F3C37404105510561057105AA
:102070008105910509F008F4C2CEC7CE22E030E018
:10208000309397022093960210929302109292023C
:10209000109295021092940282E992E00E946709E0
:1020A00064EA71E081E692E00E94BE06109393021A
:1020B0000093920282E992E00E94670906C1809132
:1020C0006002811108C081E08093600261E080912C
:1020D0005E020E94250A80919802882309F4CAC0F2
:1020E00010929802809158029091590220E1E22EBC
:1020F0002EE0F22E8E9D80018F9D100D9E9D100D65
:10210000112420915A0230915B024CE3429FC0019E
:10211000439F900D1124080F191F80915C0290912C
:102120005D02080F191F63EB71E082E092E00E94EC
:10213000BE06C8010E94540901501109C801B70127
:102140000E947B1378876F8320EF31EF629FC0017D
:10215000639F900D729F900D1124080F191FC801E5
:102160000E94540966EC71E082E092E00E94BE0693
:102170008F8198850E945409C8016CE370E00E9429
:102180007B137A87698724EC2603C001279F900D73
:102190001124080F191F6EEC71E082E092E00E949A
:1021A000BE0689859A850E945409C8010E94540977
:1021B0001C870B8768ED71E082E092E00E94BE060A
:1021C0008B859C850E945409C8010E94540962EEC7
:1021D00071E082E092E00E94BE06BE01695F7F4F1F
:1021E000CE0101960E944607BE016F5F7F4F82E0DD
:1021F00092E00E94870667E371E082E092E00E942D
:102200009506CE0101960E94CB0386E0FE0137962B
:10221000A8E5B2E001900D928A95E1F782E992E09B
:102220000E94670968E572E0CE0101960E944607A8
:10223000BE016F5F7F4F81E692E00E948706CE016C
:1022400001960E94CB0368E572E0CE0101960E94E0
:102250004607BE016F5F7F4F82E092E00E948706D3
:1022600067E371E082E092E00E949506CE0101965C
:102270000E94CB0380915A0290915B02892B29F531
:1022800080915C0290915D02892BF9F4809160024B
:10229000882339F01092600260E080915E020E9413
:1022A000250A82E992E00E9467096CEE71E081E6FE
:1022B00092E00E94BE0668EE73E080E090E00E942B
:1022C000360B109297021092960280E090E0892BD4
:1022D00009F4FDCC0E940000FACC812C912C5DCD3C
:1022E0009BE3692E712CC3010E945409332009F429
:1022F0006CCD41E04D8F6ECD3110B6CD8B819C8180
:1023000003979C838B836EE871E082E092E00E94E9
:10231000AA0633243394212CA7CD11E0A6CDED8C51
:10232000EE2009F420CD10E00E949809CE010D9610
:102330000E9467093AE0631671042CF460E381E6B9
:1023400092E00E948006B30181E692E00E94D608E6
:102350006AE381E692E00E9480064AE084169104D6
:102360002CF460E381E692E00E948006B40181E6ED
:1023700092E00E94D608CE0101960E9467090E9451
:10238000A0097ACD8BE3882E912C1FCDBB274A3034
:1023900031F4992322F4BDE2909581959F4F0C94DE
:1023A000D211BB27FB015527AA27880F991FAA1F07
:1023B000A41710F0A41B83955051B9F7A05DAA3360
:1023C00008F0A95DA193009779F7B111B19311922B
:1023D000CB010C94EB11DC01FC01672F7191772389
:1023E000E1F7329704C07C916D9370836291AE17D0
:1023F000BF07C8F30895E89409C097FB3EF4909591
:102400008095709561957F4F8F4F9F4F9923A9F0CD
:10241000F92F96E9BB279395F6958795779567955C
:10242000B795F111F8CFFAF4BB0F11F460FF1BC0A0
:102430006F5F7F4F8F4F9F4F16C0882311F096E933
:1024400011C0772321F09EE8872F762F05C06623E1
:1024500071F096E8862F70E060E02AF09A95660F9A
:10246000771F881FDAF7880F9695879597F9089553
:10247000990F0008550FAA0BE0E8FEEF1616170695
:10248000E807F907C0F012161306E407F50798F0FD
:10249000621B730B840B950B39F40A2661F0232B16
:1024A000242B252B21F408950A2609F4A140A69592
:1024B0008FEF811D811D08950E946F120C94E01210
:1024C0000E94D21238F00E94D91220F0952311F008
:1024D0000C94C9120C94CF1211240C9414130E9462
:1024E000F11270F3959FC1F3950F50E0551F629F55
:1024F000F001729FBB27F00DB11D639FAA27F00D5D
:10250000B11DAA1F649F6627B00DA11D661F829F83
:102510002227B00DA11D621F739FB00DA11D621F68
:10252000839FA00D611D221F749F3327A00D611D85
:10253000231F849F600D211D822F762F6A2F112467
:102540009F5750409AF0F1F088234AF0EE0FFF1F9A
:10255000BB1F661F771F881F91505040A9F79E3FF1
:10256000510580F00C94C9120C9414135F3FE4F3EE
:10257000983ED4F3869577956795B795F795E79547
:102580009F5FC1F7FE2B880F911D9695879597F950
:10259000089597F99F6780E870E060E008959FEFE5
:1025A00080EC089500240A941616170618060906EA
:1025B000089500240A9412161306140605060895B9
:1025C000092E0394000C11F4882352F0BB0F40F441
:1025D000BF2B11F460FF04C06F5F7F4F8F4F9F4F81
:1025E000089557FD9058440F551F59F05F3F71F003
:1025F0004795880F97FB991F61F09F3F79F087956A
:102600000895121613061406551FF2CF4695F1DFF2
:1026100008C0161617061806991FF1CF8695710582
:10262000610508940895E894BB2766277727CB01B6
:1026300097F908950E945C13A59F900DB49F900D8B
:10264000A49F800D911D112408952F923F924F92C7
:102650005F926F927F928F929F92AF92BF92CF9232
:10266000DF92EF92FF920F931F93CF93DF93CDB73B
:10267000DEB7CA1BDB0B0FB6F894DEBF0FBECDBFB3
:1026800009942A88398848885F846E847D848C8484
:102690009B84AA84B984C884DF80EE80FD800C818D
:1026A0001B81AA81B981CE0FD11D0FB6F894DEBF70
:1026B0000FBECDBFED010895A29FB001B39FC00131
:1026C000A39F700D811D1124911DB29F700D811D5E
:1026D0001124911D0895DB018F939F930E941A137B
:1026E000BF91AF91A29F800D911DA39F900DB29FAE
:1026F000900D1124089597FB072E16F4009407D02F
:1027000077FD09D00E94C01307FC05D03EF49095D8
:1027100081959F4F0895709561957F4F0895A1E22F
:102720001A2EAA1BBB1BFD010DC0AA1FBB1FEE1F4B
:10273000FF1FA217B307E407F50720F0A21BB30B96
:10274000E40BF50B661F771F881F991F1A9469F712
:1027500060957095809590959B01AC01BD01CF016E
:102760000895EE0FFF1F0590F491E02D09942A19AA
:102770003B094C095D096E097F09800B910B089597
:10278000AA1BBB1B51E107C0AA1FBB1FA617B70797
:1027900010F0A61BB70B881F991F5A95A9F78095B3
:1027A0009095BC01CD0108955058BB27AA270E94DF
:1027B000EC130C94E0120E94D21238F00E94D9124D
:1027C00020F039F49F3F19F426F40C94CF120EF444
:1027D000E095E7FB0C94C912E92F0E94F11258F31F
:1027E000BA17620773078407950720F079F4A6F5F6
:1027F0000C9413130EF4E0950B2EBA2FA02D0B01A1
:10280000B90190010C01CA01A0011124FF27591B35
:1028100099F0593F50F4503E68F11A16F040A22F3B
:10282000232F342F4427585FF3CF469537952795AC
:10283000A795F0405395C9F77EF41F16BA0B620BAB
:10284000730B840BBAF09150A1F0FF0FBB1F661FF2
:10285000771F881FC2F70EC0BA0F621F731F841F35
:1028600048F4879577956795B795F7959E3F08F05B
:10287000B0CF9395880F08F09927EE0F979587951D
:1028800008950E9448146894B1110C94141308958B
:102890000E94F91288F09F5798F0B92F9927B751E5
:1028A000B0F0E1F0660F771F881F991F1AF0BA95F4
:1028B000C9F714C0B13091F00E941313B1E008952C
:1028C0000C941313672F782F8827B85F39F0B93F1E
:1028D000CCF3869577956795B395D9F73EF49095A7
:1028E0008095709561957F4F8F4F9F4F08950E94FF
:1028F000381208F48FEF0895FA01EE0FFF1F30969B
:1029000021053105A1F16115710561F48038BFE33E
:102910009B0749F168949038810561F08038BFEFDA
:102920009B0741F099234AF5FF3FE1053105210559
:1029300019F1E8940894E795D901AA2329F4AB2F5B
:10294000BE2FF85FD0F310C0FF5F70F4A695E0F7DC
:10295000F73950F019F0FF3A38F49F779F930DD074
:102960000F9007FC9058089546F00C94CF1260E049
:1029700070E080E89FE308954FE79F775F934F9360
:102980003F932F930E9477152F913F914F915F9125
:102990000E945C120C94D41429F416F00C94C91201
:1029A0000C9413130C94CF120E94F912A8F39638CA
:1029B000A0F707F80F92E8942BE33AEA48EB5FE7B9
:1029C0000E9472120F920F920F924DB75EB70F9244
:1029D0000E94BF15EAECF0E00E9406154F915F914E
:1029E000EF91FF91E595EE1FFF1F49F0FE57E0685C
:1029F0004427EE0F441FFA95E1F74195550B0E94CD
:102A000039150F9007FE0C942D150895DF93CF9381
:102A10001F930F93FF92EF92DF927B018C016894DA
:102A200006C0DA2EEF010E946F12FE01E894A59114
:102A30002591359145915591A6F3EF010E94EC1334
:102A4000FE019701A801DA9469F7DF90EF90FF90FB
:102A50000F911F91CF91DF9108959B01AC0160E030
:102A600070E080E89FE30C94F3150C94C9120C9469
:102A700065160E94F912D8F39923C9F3940F511DDA
:102A8000A3F39150504094F059F0882332F0660F30
:102A9000771F881F91505040C1F79E3F51052CF77A
:102AA000880F911D9695879597F908955F3FACF033
:102AB000983E9CF0BB27869577956795B79508F467
:102AC000B1609395C1F7BB0F58F711F460FFE8CFE1
:102AD0006F5F7F4F8F4F9F4FE3CF0C94141316F00F
:102AE0000C9465160C94CF1268940C94C9120E9431
:102AF000F912A8F39923C1F3AEF3DF93CF931F9399
:102B00000F93FF92C92FDD2788232AF02197660FA4
:102B1000771F881FDAF720E030E040E85FEB9FE3A3
:102B2000883920F0803E38F021968F770E94D513A7
:102B3000E2EFF0E004C00E94D513EFE1F1E00E9463
:102B400006158B01BE01EC01FB2E6F5771097595BF
:102B5000771F880B990B0E94FD1128E132E741E3B2
:102B60005FE30E946F12AF2D9801AE01FF900F91AD
:102B70001F91CF91DF910E94EC130C94E012FA01A7
:102B8000DC01AA0FBB1F9B01AC01BF5728F4222711
:102B900033274427507820C0B75190F4AB2F00243E
:102BA000469537952795011CA395D2F3002071F027
:102BB000220F331F441FB395DAF30ED00C94D413B5
:102BC00061307105A0E88A07B94630F49B01AC0179
:102BD0006627772788279078309621F020833183E5
:102BE0004283538308950E9407160C94E0120E94BA
:102BF000D91258F00E94D21240F029F45F3F29F018
:102C00000C94C91251110C9414130C94CF120E94FD
:102C1000F11268F39923B1F3552391F3951B550BEA
:102C2000BB27AA2762177307840738F09F5F5F4F9F
:102C3000220F331F441FAA1FA9F335D00E2E3AF0DE
:102C4000E0E832D091505040E695001CCAF72BD0F6
:102C5000FE2F29D0660F771F881FBB1F2617370747
:102C60004807AB07B0E809F0BB0B802DBF01FF2779
:102C700093585F4F3AF09E3F510578F00C94C9127B
:102C80000C9414135F3FE4F3983ED4F38695779544
:102C90006795B795F7959F5FC9F7880F911D969532
:102CA000879597F90895E1E0660F771F881FBB1F8E
:102CB000621773078407BA0720F0621B730B840B3B
:102CC000BA0BEE1F88F7E09508959F3F31F09150C1
:102CD00020F4879577956795B795880F911D969500
:102CE000879597F908950F931F93CF93DF938230C1
:102CF000910510F482E090E0E091A402F091A50229
:102D000020E030E0A0E0B0E0309719F1408151813F
:102D10000281138148175907C8F08417950769F491
:102D2000109731F012960C93129713961C9327C0AC
:102D30000093A4021093A50222C02115310519F0B9
:102D40004217530718F49A01BD01EF01DF01F801A2
:102D5000DBCF21153105F9F0281B390B2430310563
:102D600080F48A819B816115710521F0FB019383B9
:102D7000828304C09093A5028093A402FE01329640
:102D800044C0FE01E20FF31F819391932250310959
:102D9000398328833AC02091A2023091A302232BC9
:102DA00041F420910E0130910F013093A302209342
:102DB000A20220910C0130910D012115310541F441
:102DC0002DB73EB74091100150911101241B350BD6
:102DD000E091A202F091A302E217F307A0F42E1BE8
:102DE0003F0B2817390778F0AC014E5F5F4F24176F
:102DF000350748F04E0F5F1F5093A3024093A20285
:102E00008193919302C0E0E0F0E0CF01DF91CF9198
:102E10001F910F910895CF93DF93009709F481C01C
:102E2000FC01329713821282A091A402B091A502F4
:102E3000109781F420813181820F931F2091A2028B
:102E40003091A3022817390751F5F093A302E093BC
:102E5000A20267C0ED0120E030E0CE17DF0740F4AA
:102E60004A815B819E0141155105F1F0EA01F5CFE0
:102E7000D383C28340815181840F951FC817D9071E
:102E800059F488819981840F951F029691838083DC
:102E90008A819B81938382832115310529F4F093E4
:102EA000A502E093A4023DC0E901FB83EA834991B6
:102EB0005991C40FD51FEC17FD0761F480819181F2
:102EC000840F951F0296E9019983888382819381FB
:102ED0009B838A83E0E0F0E012968D919C9113979A
:102EE000009719F0FD01DC01F7CF8D919C911197AE
:102EF0009D012E5F3F4F820F931F2091A2023091C0
:102F0000A3022817390769F4309729F41092A50213
:102F10001092A40202C013821282B093A302A09363
:102F2000A202DF91CF910895A0E0B0E0EAE9F7E1D5
:102F30000C942913EC01009721F4CB010E94731625
:102F4000B4C0FC01E60FF71F9C0122503109E217C3
:102F5000F30708F4A8C0D9010D911C911197061729
:102F60001707B0F00530110508F49BC0C80104979D
:102F70008617970708F495C002501109061B170B16
:102F8000019311936D937C93CF010E940B1789C01D
:102F90005B01A01AB10A4C01800E911EA091A402FF
:102FA000B091A502612C712CE12CF12C109709F441
:102FB00046C08D919C911197A815B905B1F56C018A
:102FC00042E0C40ED11CCA14DB0478F14C018A180B
:102FD0009B08640142E0C40ED11C1296BC9012976B
:102FE0001396AC91B5E0CB16D10440F0B282A38326
:102FF00091828082D9016D937C9309C00E5F1F4F2F
:10300000800F911FF90191838083EB2DFA2FE1143A
:10301000F10431F0D7011396FC93EE93129741C05F
:10302000F093A502E093A4023CC06816790608F468
:103030003C017D0112960D90BC91A02DB7CF8091DF
:10304000A2029091A30288169906E1F4661677060B
:10305000C8F480910C0190910D01009741F48DB757
:103060009EB74091100150911101841B950BE817F8
:10307000F907C8F4F093A302E093A202F901718367
:1030800060830FC0CB010E9473167C01009759F03A
:10309000A801BE010E945F18CE010E940B17C70154
:1030A00004C0CE0102C080E090E0CDB7DEB7EEE014
:1030B0000C94451381E090E0F8940C946F18FB0198
:1030C000DC0102C001900D9241505040D8F70895A4
:1030D000FB01DC0101900D920020E1F70895F894C6
:0230E000FFCF20
:1030E200FFFFFFFF00E10000000000000000A60259
:1030F200800000C18081000000000000001002B0CA
:10310200023603260231025E033A03000000004049
:1031120007E6014C024B020D0A003000456E746551
:103122007220612070617373636F64650050617314
:1031320073636F646520696E636F72726563740096
:1031420050617373636F646520636F727265637439
:10315200005365742074696D652020202020202092
:103162002000736574206D696E75746573007365F4
:1031720074207365636F6E64730054696D652073A8
:103182006574210054696D652072656D61696E69AF
:103192006E6700436F6E7461696E73207365636F4F
:1031A2006E64733A2000486F7572733A20004D695D
:1031B2006E757465733A20005365636F6E64733A7B
:1031C20020004E65772074696D653A00446F6E6524
:0231D2002100DA
:00000001FF
